{
  "_format": "hh-sol-artifact-1",
  "contractName": "AirlineWalletListManager",
  "sourceName": "contracts/AirlineWalletListManager.sol",
  "abi": [
    {
      "inputs": [
        {
          "internalType": "address",
          "name": "_coordinator",
          "type": "address"
        },
        {
          "components": [
            {
              "internalType": "string",
              "name": "name",
              "type": "string"
            },
            {
              "internalType": "address",
              "name": "wallet",
              "type": "address"
            },
            {
              "internalType": "address",
              "name": "iExecAddress",
              "type": "address"
            }
          ],
          "internalType": "struct AirlineWalletListManager.Airline[]",
          "name": "_airlines",
          "type": "tuple[]"
        }
      ],
      "stateMutability": "nonpayable",
      "type": "constructor"
    },
    {
      "anonymous": false,
      "inputs": [
        {
          "indexed": false,
          "internalType": "string",
          "name": "name",
          "type": "string"
        }
      ],
      "name": "AirlineAdded",
      "type": "event"
    },
    {
      "anonymous": false,
      "inputs": [
        {
          "indexed": false,
          "internalType": "string",
          "name": "name",
          "type": "string"
        }
      ],
      "name": "AirlineProposed",
      "type": "event"
    },
    {
      "anonymous": false,
      "inputs": [
        {
          "indexed": false,
          "internalType": "string",
          "name": "name",
          "type": "string"
        }
      ],
      "name": "AirlineRejected",
      "type": "event"
    },
    {
      "inputs": [],
      "name": "airlineCount",
      "outputs": [
        {
          "internalType": "uint256",
          "name": "",
          "type": "uint256"
        }
      ],
      "stateMutability": "view",
      "type": "function"
    },
    {
      "inputs": [
        {
          "internalType": "uint256",
          "name": "",
          "type": "uint256"
        }
      ],
      "name": "airlines",
      "outputs": [
        {
          "internalType": "string",
          "name": "name",
          "type": "string"
        },
        {
          "internalType": "address",
          "name": "wallet",
          "type": "address"
        },
        {
          "internalType": "address",
          "name": "iExecAddress",
          "type": "address"
        }
      ],
      "stateMutability": "view",
      "type": "function"
    },
    {
      "inputs": [],
      "name": "candidate",
      "outputs": [
        {
          "components": [
            {
              "internalType": "string",
              "name": "name",
              "type": "string"
            },
            {
              "internalType": "address",
              "name": "wallet",
              "type": "address"
            },
            {
              "internalType": "address",
              "name": "iExecAddress",
              "type": "address"
            }
          ],
          "internalType": "struct AirlineWalletListManager.Airline",
          "name": "airline",
          "type": "tuple"
        }
      ],
      "stateMutability": "view",
      "type": "function"
    },
    {
      "inputs": [],
      "name": "coordinator",
      "outputs": [
        {
          "internalType": "address",
          "name": "",
          "type": "address"
        }
      ],
      "stateMutability": "view",
      "type": "function"
    },
    {
      "inputs": [],
      "name": "defaultCandidate",
      "outputs": [
        {
          "components": [
            {
              "internalType": "string",
              "name": "name",
              "type": "string"
            },
            {
              "internalType": "address",
              "name": "wallet",
              "type": "address"
            },
            {
              "internalType": "address",
              "name": "iExecAddress",
              "type": "address"
            }
          ],
          "internalType": "struct AirlineWalletListManager.Airline",
          "name": "airline",
          "type": "tuple"
        }
      ],
      "stateMutability": "view",
      "type": "function"
    },
    {
      "inputs": [],
      "name": "isVoting",
      "outputs": [
        {
          "internalType": "bool",
          "name": "",
          "type": "bool"
        }
      ],
      "stateMutability": "view",
      "type": "function"
    },
    {
      "inputs": [],
      "name": "owner",
      "outputs": [
        {
          "internalType": "address",
          "name": "",
          "type": "address"
        }
      ],
      "stateMutability": "view",
      "type": "function"
    },
    {
      "inputs": [
        {
          "internalType": "string",
          "name": "name",
          "type": "string"
        },
        {
          "internalType": "address",
          "name": "wallet",
          "type": "address"
        },
        {
          "internalType": "address",
          "name": "iExecAddress",
          "type": "address"
        }
      ],
      "name": "propose",
      "outputs": [],
      "stateMutability": "nonpayable",
      "type": "function"
    },
    {
      "inputs": [
        {
          "internalType": "bool",
          "name": "saysYes",
          "type": "bool"
        }
      ],
      "name": "vote",
      "outputs": [],
      "stateMutability": "nonpayable",
      "type": "function"
    }
  ],
  "bytecode": "0x6080604052604051806060016040528060405180606001604052806040518060400160405280600c81526020017f4e6f2043616e64696461746500000000000000000000000000000000000000008152508152602001600073ffffffffffffffffffffffffffffffffffffffff168152602001600073ffffffffffffffffffffffffffffffffffffffff168152508152602001600067ffffffffffffffff811115620000d4577f4e487b7100000000000000000000000000000000000000000000000000000000600052604160045260246000fd5b604051908082528060200260200182016040528015620001035781602001602082028036833780820191505090505b508152602001600067ffffffffffffffff8111156200014b577f4e487b7100000000000000000000000000000000000000000000000000000000600052604160045260246000fd5b6040519080825280602002602001820160405280156200017a5781602001602082028036833780820191505090505b50815250600a6000820151816000016000820151816000019080519060200190620001a7929190620005c7565b5060208201518160010160006101000a81548173ffffffffffffffffffffffffffffffffffffffff021916908373ffffffffffffffffffffffffffffffffffffffff16021790555060408201518160020160006101000a81548173ffffffffffffffffffffffffffffffffffffffff021916908373ffffffffffffffffffffffffffffffffffffffff160217905550505060208201518160030190805190602001906200025692919062000658565b5060408201518160040190805190602001906200027592919062000658565b5050503480156200028557600080fd5b50604051620027a2380380620027a28339818101604052810190620002ab919062000955565b336000806101000a81548173ffffffffffffffffffffffffffffffffffffffff021916908373ffffffffffffffffffffffffffffffffffffffff16021790555081600160006101000a81548173ffffffffffffffffffffffffffffffffffffffff021916908373ffffffffffffffffffffffffffffffffffffffff1602179055506000600960006101000a81548160ff02191690831515021790555060005b815181101562000489578181815181106200038e577f4e487b7100000000000000000000000000000000000000000000000000000000600052603260045260246000fd5b6020026020010151600260008381526020019081526020016000206000820151816000019080519060200190620003c7929190620005c7565b5060208201518160010160006101000a81548173ffffffffffffffffffffffffffffffffffffffff021916908373ffffffffffffffffffffffffffffffffffffffff16021790555060408201518160020160006101000a81548173ffffffffffffffffffffffffffffffffffffffff021916908373ffffffffffffffffffffffffffffffffffffffff160217905550905050600360008154809291906200046e9062000b1d565b91905055508080620004809062000b1d565b9150506200034a565b50600a600460008201816000016000820181600001908054620004ac9062000ab1565b620004b9929190620006aa565b506001820160009054906101000a900473ffffffffffffffffffffffffffffffffffffffff168160010160006101000a81548173ffffffffffffffffffffffffffffffffffffffff021916908373ffffffffffffffffffffffffffffffffffffffff1602179055506002820160009054906101000a900473ffffffffffffffffffffffffffffffffffffffff168160020160006101000a81548173ffffffffffffffffffffffffffffffffffffffff021916908373ffffffffffffffffffffffffffffffffffffffff16021790555050506003820181600301908054620005a292919062000742565b506004820181600401908054620005bb92919062000742565b50905050505062000c23565b828054620005d59062000ab1565b90600052602060002090601f016020900481019282620005f9576000855562000645565b82601f106200061457805160ff191683800117855562000645565b8280016001018555821562000645579182015b828111156200064457825182559160200191906001019062000627565b5b50905062000654919062000799565b5090565b82805482825590600052602060002090810192821562000697579160200282015b828111156200069657825182559160200191906001019062000679565b5b509050620006a6919062000799565b5090565b828054620006b89062000ab1565b90600052602060002090601f016020900481019282620006dc57600085556200072f565b82601f10620006ef57805485556200072f565b828001600101855582156200072f57600052602060002091601f016020900482015b828111156200072e57825482559160010191906001019062000711565b5b5090506200073e919062000799565b5090565b828054828255906000526020600020908101928215620007865760005260206000209182015b828111156200078557825482559160010191906001019062000768565b5b50905062000795919062000799565b5090565b5b80821115620007b45760008160009055506001016200079a565b5090565b6000620007cf620007c984620009d8565b620009af565b9050808382526020820190508260005b85811015620008135781518501620007f88882620008d3565b845260208401935060208301925050600181019050620007df565b5050509392505050565b6000620008346200082e8462000a07565b620009af565b9050828152602081018484840111156200084d57600080fd5b6200085a84828562000a7b565b509392505050565b600081519050620008738162000c09565b92915050565b600082601f8301126200088b57600080fd5b81516200089d848260208601620007b8565b91505092915050565b600082601f830112620008b857600080fd5b8151620008ca8482602086016200081d565b91505092915050565b600060608284031215620008e657600080fd5b620008f26060620009af565b9050600082015167ffffffffffffffff8111156200090f57600080fd5b6200091d84828501620008a6565b6000830152506020620009338482850162000862565b6020830152506040620009498482850162000862565b60408301525092915050565b600080604083850312156200096957600080fd5b6000620009798582860162000862565b925050602083015167ffffffffffffffff8111156200099757600080fd5b620009a58582860162000879565b9150509250929050565b6000620009bb620009ce565b9050620009c9828262000ae7565b919050565b6000604051905090565b600067ffffffffffffffff821115620009f657620009f562000bc9565b5b602082029050602081019050919050565b600067ffffffffffffffff82111562000a255762000a2462000bc9565b5b62000a308262000bf8565b9050602081019050919050565b600062000a4a8262000a51565b9050919050565b600073ffffffffffffffffffffffffffffffffffffffff82169050919050565b6000819050919050565b60005b8381101562000a9b57808201518184015260208101905062000a7e565b8381111562000aab576000848401525b50505050565b6000600282049050600182168062000aca57607f821691505b6020821081141562000ae15762000ae062000b9a565b5b50919050565b62000af28262000bf8565b810181811067ffffffffffffffff8211171562000b145762000b1362000bc9565b5b80604052505050565b600062000b2a8262000a71565b91507fffffffffffffffffffffffffffffffffffffffffffffffffffffffffffffffff82141562000b605762000b5f62000b6b565b5b600182019050919050565b7f4e487b7100000000000000000000000000000000000000000000000000000000600052601160045260246000fd5b7f4e487b7100000000000000000000000000000000000000000000000000000000600052602260045260246000fd5b7f4e487b7100000000000000000000000000000000000000000000000000000000600052604160045260246000fd5b6000601f19601f8301169050919050565b62000c148162000a3d565b811462000c2057600080fd5b50565b611b6f8062000c336000396000f3fe608060405234801561001057600080fd5b50600436106100935760003560e01c80634b9f5c98116100665780634b9f5c98146101225780636c8381f81461013e578063822703891461015c5780638da5cb5b1461017a578063f55267741461019857610093565b80630506126e146100985780630a009097146100b45780631bbef399146100d25780633a9a77ca146100f0575b600080fd5b6100b260048036038101906100ad9190611273565b6101b6565b005b6100bc6104e4565b6040516100c99190611553565b60405180910390f35b6100da61050a565b6040516100e7919061156e565b60405180910390f35b61010a600480360381019061010591906112da565b61051d565b60405161011993929190611589565b60405180910390f35b61013c6004803603810190610137919061124a565b61060f565b005b6101466108a7565b60405161015391906116a9565b60405180910390f35b6101646109fb565b60405161017191906116a9565b60405180910390f35b610182610b4f565b60405161018f9190611553565b60405180910390f35b6101a0610b73565b6040516101ad91906116cb565b60405180910390f35b60006101c133610b79565b1015610202576040517f08c379a00000000000000000000000000000000000000000000000000000000081526004016101f990611689565b60405180910390fd5b600960009054906101000a900460ff1615610252576040517f08c379a000000000000000000000000000000000000000000000000000000000815260040161024990611649565b60405180910390fd5b604051806060016040528060405180606001604052808681526020018573ffffffffffffffffffffffffffffffffffffffff1681526020018473ffffffffffffffffffffffffffffffffffffffff168152508152602001600067ffffffffffffffff8111156102ea577f4e487b7100000000000000000000000000000000000000000000000000000000600052604160045260246000fd5b6040519080825280602002602001820160405280156103185781602001602082028036833780820191505090505b508152602001600067ffffffffffffffff81111561035f577f4e487b7100000000000000000000000000000000000000000000000000000000600052604160045260246000fd5b60405190808252806020026020018201604052801561038d5781602001602082028036833780820191505090505b50815250600460008201518160000160008201518160000190805190602001906103b8929190610fd4565b5060208201518160010160006101000a81548173ffffffffffffffffffffffffffffffffffffffff021916908373ffffffffffffffffffffffffffffffffffffffff16021790555060408201518160020160006101000a81548173ffffffffffffffffffffffffffffffffffffffff021916908373ffffffffffffffffffffffffffffffffffffffff1602179055505050602082015181600301908051906020019061046592919061105a565b50604082015181600401908051906020019061048292919061105a565b509050506001600960006101000a81548160ff0219169083151502179055507fc192ef52278e5a1b008f0562dad2d6ba1a590e13022333c9af5b95bd79c2871260046000016000016040516104d791906115c7565b60405180910390a1505050565b600160009054906101000a900473ffffffffffffffffffffffffffffffffffffffff1681565b600960009054906101000a900460ff1681565b600260205280600052604060002060009150905080600001805461054090611839565b80601f016020809104026020016040519081016040528092919081815260200182805461056c90611839565b80156105b95780601f1061058e576101008083540402835291602001916105b9565b820191906000526020600020905b81548152906001019060200180831161059c57829003601f168201915b5050505050908060010160009054906101000a900473ffffffffffffffffffffffffffffffffffffffff16908060020160009054906101000a900473ffffffffffffffffffffffffffffffffffffffff16905083565b600061061a33610b79565b101561065b576040517f08c379a000000000000000000000000000000000000000000000000000000000815260040161065290611689565b60405180910390fd5b600960009054906101000a900460ff166106aa576040517f08c379a00000000000000000000000000000000000000000000000000000000081526004016106a190611669565b60405180910390fd5b60006106b533610b79565b9050610714600460030180548060200260200160405190810160405280929190818152602001828054801561070957602002820191906000526020600020905b8154815260200190600101908083116106f5575b505050505082610c52565b15610754576040517f08c379a000000000000000000000000000000000000000000000000000000000815260040161074b906115e9565b60405180910390fd5b6107b0600480018054806020026020016040519081016040528092919081815260200182805480156107a557602002820191906000526020600020905b815481526020019060010190808311610791575b505050505082610c52565b156107f0576040517f08c379a00000000000000000000000000000000000000000000000000000000081526004016107e790611629565b60405180910390fd5b8115610827576004600301819080600181540180825580915050600190039060005260206000200160009091909190915055610853565b600480018190806001815401808255809150506001900390600052602060002001600090919091909150555b6002600354610862919061177e565b600460030180549050111561087c5761087b6001610cd4565b5b600260035461088b919061177e565b6004800180549050106108a3576108a26000610cd4565b5b5050565b6004806000016040518060600160405290816000820180546108c890611839565b80601f01602080910402602001604051908101604052809291908181526020018280546108f490611839565b80156109415780601f1061091657610100808354040283529160200191610941565b820191906000526020600020905b81548152906001019060200180831161092457829003601f168201915b505050505081526020016001820160009054906101000a900473ffffffffffffffffffffffffffffffffffffffff1673ffffffffffffffffffffffffffffffffffffffff1673ffffffffffffffffffffffffffffffffffffffff1681526020016002820160009054906101000a900473ffffffffffffffffffffffffffffffffffffffff1673ffffffffffffffffffffffffffffffffffffffff1673ffffffffffffffffffffffffffffffffffffffff1681525050905081565b600a80600001604051806060016040529081600082018054610a1c90611839565b80601f0160208091040260200160405190810160405280929190818152602001828054610a4890611839565b8015610a955780601f10610a6a57610100808354040283529160200191610a95565b820191906000526020600020905b815481529060010190602001808311610a7857829003601f168201915b505050505081526020016001820160009054906101000a900473ffffffffffffffffffffffffffffffffffffffff1673ffffffffffffffffffffffffffffffffffffffff1673ffffffffffffffffffffffffffffffffffffffff1681526020016002820160009054906101000a900473ffffffffffffffffffffffffffffffffffffffff1673ffffffffffffffffffffffffffffffffffffffff1673ffffffffffffffffffffffffffffffffffffffff1681525050905081565b60008054906101000a900473ffffffffffffffffffffffffffffffffffffffff1681565b60035481565b600080600090505b600354811015610c11576002600082815260200190815260200160002060010160009054906101000a900473ffffffffffffffffffffffffffffffffffffffff1673ffffffffffffffffffffffffffffffffffffffff168373ffffffffffffffffffffffffffffffffffffffff161415610bfe5780915050610c4d565b8080610c099061189c565b915050610b81565b506040517f08c379a0000000000000000000000000000000000000000000000000000000008152600401610c4490611609565b60405180910390fd5b919050565b600080600090505b8351811015610cc85782848281518110610c9d577f4e487b7100000000000000000000000000000000000000000000000000000000600052603260045260246000fd5b60200260200101511415610cb5576001915050610cce565b8080610cc09061189c565b915050610c5a565b50600090505b92915050565b8015610d2557610ce2610eaf565b7f11f34d0cb728938554761b5da2a35291de94b5588c9207bb1d6ed50066d97ffe6004600001600001604051610d1891906115c7565b60405180910390a1610d64565b7f2b504fb9d5fdb784203c732146ac89af1029338c76e8a7312df0de42ed0f248f6004600001600001604051610d5b91906115c7565b60405180910390a15b6000600960006101000a81548160ff021916908315150217905550600a600460008201816000016000820181600001908054610d9f90611839565b610daa9291906110a7565b506001820160009054906101000a900473ffffffffffffffffffffffffffffffffffffffff168160010160006101000a81548173ffffffffffffffffffffffffffffffffffffffff021916908373ffffffffffffffffffffffffffffffffffffffff1602179055506002820160009054906101000a900473ffffffffffffffffffffffffffffffffffffffff168160020160006101000a81548173ffffffffffffffffffffffffffffffffffffffff021916908373ffffffffffffffffffffffffffffffffffffffff16021790555050506003820181600301908054610e91929190611134565b506004820181600401908054610ea8929190611134565b5090505050565b60046000016002600060035481526020019081526020016000206000820181600001908054610edd90611839565b610ee89291906110a7565b506001820160009054906101000a900473ffffffffffffffffffffffffffffffffffffffff168160010160006101000a81548173ffffffffffffffffffffffffffffffffffffffff021916908373ffffffffffffffffffffffffffffffffffffffff1602179055506002820160009054906101000a900473ffffffffffffffffffffffffffffffffffffffff168160020160006101000a81548173ffffffffffffffffffffffffffffffffffffffff021916908373ffffffffffffffffffffffffffffffffffffffff16021790555090505060036000815480929190610fcd9061189c565b9190505550565b828054610fe090611839565b90600052602060002090601f0160209004810192826110025760008555611049565b82601f1061101b57805160ff1916838001178555611049565b82800160010185558215611049579182015b8281111561104857825182559160200191906001019061102d565b5b5090506110569190611186565b5090565b828054828255906000526020600020908101928215611096579160200282015b8281111561109557825182559160200191906001019061107a565b5b5090506110a39190611186565b5090565b8280546110b390611839565b90600052602060002090601f0160209004810192826110d55760008555611123565b82601f106110e65780548555611123565b8280016001018555821561112357600052602060002091601f016020900482015b82811115611122578254825591600101919060010190611107565b5b5090506111309190611186565b5090565b8280548282559060005260206000209081019282156111755760005260206000209182015b82811115611174578254825591600101919060010190611159565b5b5090506111829190611186565b5090565b5b8082111561119f576000816000905550600101611187565b5090565b60006111b66111b18461170b565b6116e6565b9050828152602081018484840111156111ce57600080fd5b6111d98482856117f7565b509392505050565b6000813590506111f081611af4565b92915050565b60008135905061120581611b0b565b92915050565b600082601f83011261121c57600080fd5b813561122c8482602086016111a3565b91505092915050565b60008135905061124481611b22565b92915050565b60006020828403121561125c57600080fd5b600061126a848285016111f6565b91505092915050565b60008060006060848603121561128857600080fd5b600084013567ffffffffffffffff8111156112a257600080fd5b6112ae8682870161120b565b93505060206112bf868287016111e1565b92505060406112d0868287016111e1565b9150509250925092565b6000602082840312156112ec57600080fd5b60006112fa84828501611235565b91505092915050565b61130c816117af565b82525050565b61131b816117af565b82525050565b61132a816117c1565b82525050565b600061133b82611751565b611345818561175c565b9350611355818560208601611806565b61135e816119a1565b840191505092915050565b600061137482611751565b61137e818561176d565b935061138e818560208601611806565b611397816119a1565b840191505092915050565b600081546113af81611839565b6113b9818661176d565b945060018216600081146113d457600181146113e657611419565b60ff1983168652602086019350611419565b6113ef8561173c565b60005b83811015611411578154818901526001820191506020810190506113f2565b808801955050505b50505092915050565b600061142f60168361176d565b915061143a826119b2565b602082019050919050565b6000611452601d8361176d565b915061145d826119db565b602082019050919050565b600061147560168361176d565b915061148082611a04565b602082019050919050565b600061149860268361176d565b91506114a382611a2d565b604082019050919050565b60006114bb601f8361176d565b91506114c682611a7c565b602082019050919050565b60006114de602c8361176d565b91506114e982611aa5565b604082019050919050565b600060608301600083015184820360008601526115118282611330565b91505060208301516115266020860182611303565b5060408301516115396040860182611303565b508091505092915050565b61154d816117ed565b82525050565b60006020820190506115686000830184611312565b92915050565b60006020820190506115836000830184611321565b92915050565b600060608201905081810360008301526115a38186611369565b90506115b26020830185611312565b6115bf6040830184611312565b949350505050565b600060208201905081810360008301526115e181846113a2565b905092915050565b6000602082019050818103600083015261160281611422565b9050919050565b6000602082019050818103600083015261162281611445565b9050919050565b6000602082019050818103600083015261164281611468565b9050919050565b600060208201905081810360008301526116628161148b565b9050919050565b60006020820190508181036000830152611682816114ae565b9050919050565b600060208201905081810360008301526116a2816114d1565b9050919050565b600060208201905081810360008301526116c381846114f4565b905092915050565b60006020820190506116e06000830184611544565b92915050565b60006116f0611701565b90506116fc828261186b565b919050565b6000604051905090565b600067ffffffffffffffff82111561172657611725611972565b5b61172f826119a1565b9050602081019050919050565b60008190508160005260206000209050919050565b600081519050919050565b600082825260208201905092915050565b600082825260208201905092915050565b6000611789826117ed565b9150611794836117ed565b9250826117a4576117a3611914565b5b828204905092915050565b60006117ba826117cd565b9050919050565b60008115159050919050565b600073ffffffffffffffffffffffffffffffffffffffff82169050919050565b6000819050919050565b82818337600083830152505050565b60005b83811015611824578082015181840152602081019050611809565b83811115611833576000848401525b50505050565b6000600282049050600182168061185157607f821691505b6020821081141561186557611864611943565b5b50919050565b611874826119a1565b810181811067ffffffffffffffff8211171561189357611892611972565b5b80604052505050565b60006118a7826117ed565b91507fffffffffffffffffffffffffffffffffffffffffffffffffffffffffffffffff8214156118da576118d96118e5565b5b600182019050919050565b7f4e487b7100000000000000000000000000000000000000000000000000000000600052601160045260246000fd5b7f4e487b7100000000000000000000000000000000000000000000000000000000600052601260045260246000fd5b7f4e487b7100000000000000000000000000000000000000000000000000000000600052602260045260246000fd5b7f4e487b7100000000000000000000000000000000000000000000000000000000600052604160045260246000fd5b6000601f19601f8301169050919050565b7f596f7520616c726561647920766f7465642070726f2e00000000000000000000600082015250565b7f4e6f206169726c696e652077697468207468697320616464726573732e000000600082015250565b7f596f7520616c726561647920766f74656420636f6e2e00000000000000000000600082015250565b7f546865726520697320616c7265616479206120766f74696e6720696e2070726f60008201527f67726573732e0000000000000000000000000000000000000000000000000000602082015250565b7f5468657265206973206e6f20766f74696e6720696e2070726f67726573732e00600082015250565b7f4f6e6c79206c6973746564206169726c696e65732063616e2063616c6c20746860008201527f69732066756e6374696f6e2e0000000000000000000000000000000000000000602082015250565b611afd816117af565b8114611b0857600080fd5b50565b611b14816117c1565b8114611b1f57600080fd5b50565b611b2b816117ed565b8114611b3657600080fd5b5056fea2646970667358221220f67c04a1afad964bbfc4099581bb8fa584728d749cdc87351ea42a0656e768d364736f6c63430008020033",
  "linkReferences": {},
  "deployedLinkReferences": {}
}